{
  "_format": "hh-sol-artifact-1",
  "contractName": "AreaCalculator",
  "sourceName": "contracts/AreaCalculator.sol",
  "abi": [
    {
      "inputs": [
        {
          "internalType": "uint256",
          "name": "_length",
          "type": "uint256"
        },
        {
          "internalType": "uint256",
          "name": "_width",
          "type": "uint256"
        }
      ],
      "name": "calculateRectangle",
      "outputs": [
        {
          "internalType": "uint256",
          "name": "",
          "type": "uint256"
        }
      ],
      "stateMutability": "pure",
      "type": "function"
    },
    {
      "inputs": [
        {
          "internalType": "uint256",
          "name": "_side",
          "type": "uint256"
        }
      ],
      "name": "calculateSquare",
      "outputs": [
        {
          "internalType": "uint256",
          "name": "",
          "type": "uint256"
        }
      ],
      "stateMutability": "pure",
      "type": "function"
    },
    {
      "inputs": [
        {
          "internalType": "uint256",
          "name": "_base",
          "type": "uint256"
        },
        {
          "internalType": "uint256",
          "name": "_height",
          "type": "uint256"
        }
      ],
      "name": "calculateTriangle",
      "outputs": [
        {
          "internalType": "uint256",
          "name": "",
          "type": "uint256"
        }
      ],
      "stateMutability": "pure",
      "type": "function"
    }
  ],
  "bytecode": "0x608060405234801561001057600080fd5b506102fc806100206000396000f3fe608060405234801561001057600080fd5b50600436106100415760003560e01c8063415a616e1461004657806366ae8d4414610076578063e7aa48c2146100a6575b600080fd5b610060600480360381019061005b919061015e565b6100d6565b60405161006d91906101ad565b60405180910390f35b610090600480360381019061008b919061015e565b6100ec565b60405161009d91906101ad565b60405180910390f35b6100c060048036038101906100bb91906101c8565b61010e565b6040516100cd91906101ad565b60405180910390f35b600081836100e49190610224565b905092915050565b6000600282846100fc9190610224565b6101069190610295565b905092915050565b6000818261011c9190610224565b9050919050565b600080fd5b6000819050919050565b61013b81610128565b811461014657600080fd5b50565b60008135905061015881610132565b92915050565b6000806040838503121561017557610174610123565b5b600061018385828601610149565b925050602061019485828601610149565b9150509250929050565b6101a781610128565b82525050565b60006020820190506101c2600083018461019e565b92915050565b6000602082840312156101de576101dd610123565b5b60006101ec84828501610149565b91505092915050565b7f4e487b7100000000000000000000000000000000000000000000000000000000600052601160045260246000fd5b600061022f82610128565b915061023a83610128565b925082820261024881610128565b9150828204841483151761025f5761025e6101f5565b5b5092915050565b7f4e487b7100000000000000000000000000000000000000000000000000000000600052601260045260246000fd5b60006102a082610128565b91506102ab83610128565b9250826102bb576102ba610266565b5b82820490509291505056fea26469706673582212204fd2d03f4fa589d551d18c02fb4ccff4cc935e6d2d7e0e544f5deec1183948a964736f6c63430008180033",
  "linkReferences": {},
  "deployedLinkReferences": {}
}